let txs = ["0200000001197b2e0e9753261e8cb2eb72d2c255ae99aa2460a7813892dd78baabce6a401f0200000000ffffffff01c034020000000000225120d395f5b49a17f2f06ff03d982130d25cc5042e4d6e97611a9388bdf16fb9415700000000", "02000000000102197b2e0e9753261e8cb2eb72d2c255ae99aa2460a7813892dd78baabce6a401f0100000000ffffffff67ebd633332f41b067314e3bdf67526d679efb98eda2334142f4174539e7c8ac0000000000ffffffff03e803000000000000225120a60869f0dbcf1dc659c9cecbaf8050135ea9e8cdc487053f1dc6880949dc684c4e050000000000001600141db4ded10fa155036bfb40717ea68022be899fbbe02c020000000000225120a60869f0dbcf1dc659c9cecbaf8050135ea9e8cdc487053f1dc6880949dc684c000341591b5a2f65fca7c0a1e042e2f8520a83c27932bc115ef68dbdc520d59c3203e5f297b3d2a5b0396328ea626127c3eaf3ff6f3cb878d19f2f967bd09ec8be80f481fdda020063057370656c6c4d080282a36776657273696f6e06627478a1646f75747381a1001b000000035d498080716170705f7075626c69635f696e70757473a18361749820187c18f818ee1871188618e40f187b18d910183218d11849186718bc18a1185218df09187f18720d18d618d81849185718a4182e18d61857188618ee9820186c18730a188c182518251844185a18cd188e18fe18cb188d18ae1865184918dc186418ce187818ef183c18501863181e18e018da18d918ab188f18761818f699010418a41859184c1859181a188e1318b3185a18fe187e18de061318270318c9188116186518a0189b1893181a18be184018321518db18bd18fe1871189a18c918a7186a182b181a18a518d5185218df18ec18ba18521840186b18a418ea18be186518af18271888181e18d2189518d018f6185a18c9183a185b131865185a183a18621828182218f01867188a18f8186f18dd187218e418e0187b184618a018cd188918e01870184e181c187918c018b118291872186918be18d518180418dc183e182118bc1887189018ba182518d518e7185f186e18c31856187018ad18ab18dc0e18a71882185e189118be18c7187b18ff183c18f4188d18df05185a18a31618f5185a182818b7184c18e018c1187a18711894181b18f512183c1860187118a3185c18261864182617186c1840182d184318e218a6189a188e181c0e1879186518fd182018ed1862187418ba18f1184ca24818f018c318ab18ed181d18ce189b1838183e182d0a18cb18bd18f2181d187c13182518b0188c189e0e1851189d186c18241891189018ba188a188e18d3183d1318a618df18df189b18dd18451828183f18b0186d1844182718571819185e18fc185f0118d70818d8186d18fe1885187618ff18ab183b181e183018de18781318a118ae18460718a6183d18c1189b18e718b6187f0618561887188d18271886186f6820cfd13cbd465bdcccc12570969cab2883899d296b65c7f6495d081e256a097b30ac21c0cfd13cbd465bdcccc12570969cab2883899d296b65c7f6495d081e256a097b3000000000"];


/*
MINT TX
{"version":2,"locktime":0,"ins":[{"n":0,"script":{"asm":"","hex":""},"sequence":4294967295,"txid":"81a3aabb0786beec4be89a76d08d0878861b5ae2604dc6aab40de7671c4520bd","witness":["b9fe1725441856acf6aa14643c036e42ae047f195f0d9f1e8501be8ffc192472b9fb8ca0ca139c9737933cc10576d3d760c8808c5d64b6b5f97ea36964cd24ee"]}],"outs":[{"n":0,"script":{"addresses":[],"asm":"OP_RETURN 3735393933","hex":"6a053735393933"},"value":0},{"n":1,"script":{"addresses":[],"asm":"OP_1 a82f29944d65b86ae6b5e5cc75e294ead6c59391a1edc5e016e3498c67fc7bbb","hex":"5120a82f29944d65b86ae6b5e5cc75e294ead6c59391a1edc5e016e3498c67fc7bbb"},"value":777},{"n":2,"script":{"addresses":[],"asm":"OP_1 a82f29944d65b86ae6b5e5cc75e294ead6c59391a1edc5e016e3498c67fc7bbb","hex":"5120a82f29944d65b86ae6b5e5cc75e294ead6c59391a1edc5e016e3498c67fc7bbb"},"value":144687}],"hash":"1f406aceabba78dd923881a76024aa99ae55c2d272ebb28c1e2653970e2e7b19","txid":"1f406aceabba78dd923881a76024aa99ae55c2d272ebb28c1e2653970e2e7b19"}
*/

/*
COMMIT TX 
{"version":2,"locktime":0,"ins":[{"n":2,"script":{"asm":"","hex":""},"sequence":4294967295,"txid":"1f406aceabba78dd923881a76024aa99ae55c2d272ebb28c1e2653970e2e7b19","witness":[]}],"outs":[{"n":0,"script":{"addresses":[],"asm":"OP_1 d395f5b49a17f2f06ff03d982130d25cc5042e4d6e97611a9388bdf16fb94157","hex":"5120d395f5b49a17f2f06ff03d982130d25cc5042e4d6e97611a9388bdf16fb94157"},"value":144576}],"hash":"acc8e7394517f4424133a2ed98fb9e676d5267df3b4e3167b0412f3333d6eb67","txid":"acc8e7394517f4424133a2ed98fb9e676d5267df3b4e3167b0412f3333d6eb67"}
*/

/*
SPELL TX
{"version":2,"locktime":0,"ins":[{"n":1,"script":{"asm":"","hex":""},"sequence":4294967295,"txid":"1f406aceabba78dd923881a76024aa99ae55c2d272ebb28c1e2653970e2e7b19","witness":[]},{"n":0,"script":{"asm":"","hex":""},"sequence":4294967295,"txid":"acc8e7394517f4424133a2ed98fb9e676d5267df3b4e3167b0412f3333d6eb67","witness":["591b5a2f65fca7c0a1e042e2f8520a83c27932bc115ef68dbdc520d59c3203e5f297b3d2a5b0396328ea626127c3eaf3ff6f3cb878d19f2f967bd09ec8be80f481","0063057370656c6c4d080282a36776657273696f6e06627478a1646f75747381a1001b000000035d498080716170705f7075626c69635f696e70757473a18361749820187c18f818ee1871188618e40f187b18d910183218d11849186718bc18a1185218df09187f18720d18d618d81849185718a4182e18d61857188618ee9820186c18730a188c182518251844185a18cd188e18fe18cb188d18ae1865184918dc186418ce187818ef183c18501863181e18e018da18d918ab188f18761818f699010418a41859184c1859181a188e1318b3185a18fe187e18de061318270318c9188116186518a0189b1893181a18be184018321518db18bd18fe1871189a18c918a7186a182b181a18a518d5185218df18ec18ba18521840186b18a418ea18be186518af18271888181e18d2189518d018f6185a18c9183a185b131865185a183a18621828182218f01867188a18f8186f18dd187218e418e0187b184618a018cd188918e01870184e181c187918c018b118291872186918be18d518180418dc183e182118bc1887189018ba182518d518e7185f186e18c31856187018ad18ab18dc0e18a71882185e189118be18c7187b18ff183c18f4188d18df05185a18a31618f5185a182818b7184c18e018c1187a18711894181b18f512183c1860187118a3185c18261864182617186c1840182d184318e218a6189a188e181c0e1879186518fd182018ed1862187418ba18f1184ca24818f018c318ab18ed181d18ce189b1838183e182d0a18cb18bd18f2181d187c13182518b0188c189e0e1851189d186c18241891189018ba188a188e18d3183d1318a618df18df189b18dd18451828183f18b0186d1844182718571819185e18fc185f0118d70818d8186d18fe1885187618ff18ab183b181e183018de18781318a118ae18460718a6183d18c1189b18e718b6187f0618561887188d18271886186f6820cfd13cbd465bdcccc12570969cab2883899d296b65c7f6495d081e256a097b30ac","c0cfd13cbd465bdcccc12570969cab2883899d296b65c7f6495d081e256a097b30"]}],"outs":[{"n":0,"script":{"addresses":[],"asm":"OP_1 a60869f0dbcf1dc659c9cecbaf8050135ea9e8cdc487053f1dc6880949dc684c","hex":"5120a60869f0dbcf1dc659c9cecbaf8050135ea9e8cdc487053f1dc6880949dc684c"},"value":1000},{"n":1,"script":{"addresses":["bc1qrk6da5g0592sx6lmgpchaf5qy2lgn8am57862w"],"asm":"OP_0 1db4ded10fa155036bfb40717ea68022be899fbb","hex":"00141db4ded10fa155036bfb40717ea68022be899fbb"},"value":1358},{"n":2,"script":{"addresses":[],"asm":"OP_1 a60869f0dbcf1dc659c9cecbaf8050135ea9e8cdc487053f1dc6880949dc684c","hex":"5120a60869f0dbcf1dc659c9cecbaf8050135ea9e8cdc487053f1dc6880949dc684c"},"value":142560}],"hash":"86081de981f11ba05701dd20be846897b6154d510abef824895c7a8282f131a9","txid":"86081de981f11ba05701dd20be846897b6154d510abef824895c7a8282f131a9"}
*/
